:0400000063EF00F0BA
:10000800FACF1CF0FBCF1DF0E9CF1EF019EF04F07A
:10001800D8CF9DF0E8CF9EF0E0CF9FF0FACFA0F0C8
:10002800FBCFA1F0E9CFA2F0EACFA3F0E1CFA4F093
:10003800E2CFA5F0D9CFA6F0DACFA7F0F3CFA8F09A
:10004800F4CFA9F0F6CFAAF0F7CFABF0F8CFACF029
:10005800F5CFADF071A20BD071981A0E00019C6F0C
:10006800F80EE82EFED79C2FFCD700D07188A4AAE2
:1000780003D000015B80A49AADC0F5FFACC0F8FFC7
:10008800ABC0F7FFAAC0F6FFA9C0F4FFA8C0F3FFF2
:10009800A7C0DAFFA6C0D9FFA5C0E2FFA4C0E1FF50
:1000A800A3C0EAFFA2C0E9FFA1C0FBFFA0C0FAFFFE
:1000B8009FC0E0FF9EC0E8FF9DC0D8FF100083EFFF
:0200C80005F041
:10060000007368772C303031632C00444F3A00314E
:1006100030000000000E106E000E0F6E0AD00F505A
:100620000724D96E10500820DA6E000EDF6E0F4AD4
:10063000102A1050800A0B6E09500F5C0A50800A75
:100640000B58D8A0ECD706C017F005C016F0010E65
:100650000724146E000E0820156E09500724126E30
:100660000A500820136E000E116E2E0E16C0D9FF10
:1006700017C0DAFFDF6226D014C0D9FF15C0DAFF39
:10068000300EDF6E144A152A010E116E164A172A13
:1006900019D02E0E16C0D9FF17C0DAFFDF6203D0C3
:1006A000164A172A34D0112A16C0D9FF17C0DAFF0C
:1006B00014C0E1FF15C0E2FFDFCFE7FF164A172A9B
:1006C000144A152A16C0D9FF17C0DAFFDF50D8B474
:1006D0001ED016C0D9FF17C0DAFFDF500D0AD8B4FC
:1006E00016D016C0D9FF17C0DAFFDF500A0AD8B4F7
:1006F0000ED016C0D9FF17C0DAFFDF502C0AD8B4CD
:1007000006D01250145C13501558D8A0C2D71150FF
:10071000D8B488D016C0D9FF17C0DAFFDF50D8B4DC
:1007200042D016C0D9FF17C0DAFFDF500D0AD8B487
:100730003AD016C0D9FF17C0DAFFDF500A0AD8B482
:1007400032D01250145C13501558D8A00FD02BD0B3
:1007500016C0D9FF17C0DAFF14C0E1FF15C0E2FFD1
:10076000DFCFE7FF164A172A144A152A16C0D9FF09
:1007700017C0DAFFDF50D8B416D016C0D9FF17C0A3
:10078000DAFFDF500D0AD8B40ED016C0D9FF17C05B
:10079000DAFFDF500A0AD8B406D01250145C1350A6
:1007A0001558D8A0D5D7000E036E1150A8EC06F04E
:1007B00007C0D9FF08C0DAFFDF6EFD0E0B6EFF0E1B
:1007C0000C6E12C00DF013C00EF00B500D260C5025
:1007D0000E220D50145C0E501558D8A012D01406DD
:1007E000D8A0150614C0D9FF15C0DAFF000EDF6EC1
:1007F0001406D8A015061406D8A015061406D8A00D
:10080000150614C0D9FF15C0DAFF460EDF6E144A74
:10081000152A14C0D9FF15C0DAFF300EDF6E144A56
:10082000152A120014C0D9FF15C0DAFF300EDF6E92
:100830001200EACF1FF0E1CF20F0E2CF21F0D9CFB4
:1008400022F0DACF23F0F3CF24F0F4CF25F0F6CF67
:1008500026F0F7CF27F0F8CF28F0F5CF29F09DBA92
:100860009EAAA8D09E9AABA20BD0AB981A0E186E77
:10087000F80EE82EFED7182EFCD700D0AB8806D095
:10088000ABA407D0AE50AE50AE50AE5000015B846A
:1008900091D0DEEC06F02E6E00015BB289D034669A
:1008A00089D02E5098EC06F0D8B00CD02E502C0ADF
:1008B000D8B408D02E502E0AD8B404D02E500D0A29
:1008C000D8A478D0352A2E500D0AD8B404D035508B
:1008D000140AD8A459D0FF0E186EFF0E196E3550A9
:1008E0001A6E1B6A18501A2619501B22360E1A242B
:1008F000D96E000E1B20DA6E000EDF6E000E356E14
:10090000000E2B6E360E2A6E33503210D8A411D042
:100910002BC006F02AC005F00001000E086E000191
:10092000740E076E000E0A6E140E096E0AEC03F0C8
:1009300014D032043310D8A410D02BC006F02AC033
:1009400005F00001000E086E0001880E076E000E13
:100950000A6E140E096E0AEC03F0000E2D6E000EE6
:100960002C6E2D50800A800F140ED8B42C5CD8B099
:100970001FD0360E2C24D96E000E2D20DA6E000EFC
:10098000DF6E2C4A2D2AEDD7FF0E186EFF0E196E62
:1009900035501A6E1B6A18501A2619501B22360E33
:1009A0001A24D96E000E1B20DA6E2EC0DFFF02D093
:1009B00000015B8629C0F5FF28C0F8FF27C0F7FFBC
:1009C00026C0F6FF25C0F4FF24C0F3FF23C0DAFFE2
:1009D00022C0D9FF21C0E2FF20C0E1FF1FC0EAFF13
:1009E0001EC0E9FF1DC0FBFF1CC0FAFF1100010E75
:1009F0000001B46F000E0001B66F000E0001B56F6C
:100A0000B5C032F0B6C033F059EC05F0000E00016D
:100A1000AF6F640E0001AE6F32EC06F0000ED1EC49
:100A200005F000015BA6FDD70001B405D8A4F9D7F5
:100A300000015B96000E0001B66F000E0001B56F5D
:100A40000001B651B511D8A42CD00101010E00014E
:100A5000AF6F0101000E0001AE6F060E0001B16F15
:100A6000010E0001B06F14EC06F00101010E00014F
:100A7000AF6F0101000E0001AE6F0001000E00011A
:100A8000B16F0001740E0001B06FABEC05F0010115
:100A9000010E0001B26F0101000E0001B16FB7EC51
:100AA00006F0B5C032F0B6C033F03250D1EC05F0EC
:100AB000B8D700015B9000015B9600015B94F00EDB
:100AC000D36E9B8C000E0F01386F000E0F013A6F32
:100AD000000E806E000E816E000E826E92929294D5
:100AE00089828994929C9490DAEC06F086EC06F068
:100AF000030E0001AF6FE80E0001AE6F32EC06F09E
:100B000074EC06F0120001EE00F0500EEE6AE806FA
:100B1000FDE100EE60F03C0EEE6AE806FDE15B6A86
:100B200000EE2FF01B0EEE6AE806FDE1860EF66E73
:100B30000D0EF76E000EF86E00EE4AF010EE11F09A
:100B40000900F5CFEEFFE550E150FAE1000EF86E36
:100B50000001F7EF04F00001AFC0B3F00001AEC038
:100B6000B2F003D00001B24BB32BB2C0D9FFB3C077
:100B7000DAFFDF50D8B407D0F5D70001B24BB32B62
:100B80000001B04BB12BB0C0D9FFB1C0DAFFB2C089
:100B9000E1FFB3C0E2FFDFCFE7FFE750D8B41200B8
:100BA000ECD70001B26F9D9A0001B2C0AEF0000117
:100BB000AF6BF3EC05F0030E0001AF6FE80E000120
:100BC000AE6F32EC06F09D8A520ECCEC06F00D0EA4
:100BD000CCEC06F00B0E0001AF6FB80E0001AE6F4B
:100BE00032EC06F0120009D0899C8B901200899C8F
:100BF0008B801200898C8B8012000001AEC0B0F097
:100C00000001AFC0B1F00001B151000AD8A4120038
:100C10000001B051000AD8B4E7D7010AD8B4E7D729
:100C2000030AD8A41200E6D70001AFC0B3F0000158
:100C3000AEC0B2F006D00001B24BB32B0001B04BF6
:100C4000B12B0001B0C0F6FF0001B1C0F7FFB2C088
:100C5000D9FFB3C0DAFF0800F5CFDFFFDF50D8B40B
:100C60001200E9D70FD0820E0001B06FDE0EE82E21
:100C7000FED7B02FFCD70001E70E0001AE27FF0E14
:100C80000001AF230001AF51800AF36E800EF35CC8
:100C9000010ED8B4AE5DD8A01200E5D70AD0AFC01F
:100CA000D9FFB0C0DAFFDF50D3EC06F00001AF4B44
:100CB000B02BAFC0D9FFB0C0DAFFDF50D8B41200FC
:100CC000EED7026E02C001F0F00E0116D8B402D0C9
:100CD000000E12000250010D4A0EF324D96E000ED0
:100CE000F420DA6EDF501200729A728A7284729C5B
:100CF000729871987188719C938E938C220E756E88
:100D0000000E766E7096A39A718E1200AC9AAC8A21
:100D1000AC84AC9CAC98AB98AB88AB9C948C948E18
:100D2000670EAF6E000EB06EB8969D8AAB8E120045
:100D3000036E000E026E3A0E035CD8B005D02F0E83
:100D4000036402D0010E026E02C001F001301200F5
:100D5000046E0350D8B406D004380F0B0F0B61ECAF
:100D600006F0120004500F0B61EC06F012000001B7
:100D7000B2C0B0F00001B1C0AFF04EEC06F00D0E05
:100D8000D3EC06F01200303132333435363738398F
:100D900041424344454600000001AE6FACA2FED77D
:100DA000AEC0ADFF12000001AE6F72A2FED7AEC0A2
:100DB00073FF1200D08EF28EF28C12009DAAFED725
:040DC000AE5012001F
:020000040020DA
:08000000FFFFFFFFFFFFFFFF00
:020000040030CA
:0E000000FF381F3CFFBF81FF0FC00FE00F4015
:00000001FF
